{
  "_format": "hh-sol-artifact-1",
  "contractName": "KeeperHelper",
  "sourceName": "contracts/KeeperHelper.sol",
  "abi": [
    {
      "inputs": [
        {
          "internalType": "address",
          "name": "_router",
          "type": "address"
        }
      ],
      "stateMutability": "nonpayable",
      "type": "constructor"
    },
    {
      "inputs": [
        {
          "internalType": "address",
          "name": "pair",
          "type": "address"
        },
        {
          "internalType": "address",
          "name": "tokenA",
          "type": "address"
        },
        {
          "internalType": "address",
          "name": "tokenB",
          "type": "address"
        },
        {
          "internalType": "uint256",
          "name": "minAmountA",
          "type": "uint256"
        },
        {
          "internalType": "uint256",
          "name": "minAmountB",
          "type": "uint256"
        }
      ],
      "name": "rebalanceAndCompound",
      "outputs": [],
      "stateMutability": "nonpayable",
      "type": "function"
    },
    {
      "inputs": [],
      "name": "router",
      "outputs": [
        {
          "internalType": "contract Router",
          "name": "",
          "type": "address"
        }
      ],
      "stateMutability": "view",
      "type": "function"
    }
  ],
  "bytecode": "0x608060405234801561001057600080fd5b5060405161037b38038061037b833981810160405281019061003291906100db565b806000806101000a81548173ffffffffffffffffffffffffffffffffffffffff021916908373ffffffffffffffffffffffffffffffffffffffff16021790555050610108565b600080fd5b600073ffffffffffffffffffffffffffffffffffffffff82169050919050565b60006100a88261007d565b9050919050565b6100b88161009d565b81146100c357600080fd5b50565b6000815190506100d5816100af565b92915050565b6000602082840312156100f1576100f0610078565b5b60006100ff848285016100c6565b91505092915050565b610264806101176000396000f3fe608060405234801561001057600080fd5b50600436106100365760003560e01c80633cfa7b891461003b578063f887ea4014610057575b600080fd5b61005560048036038101906100509190610139565b610075565b005b61005f61007c565b60405161006c9190610213565b60405180910390f35b5050505050565b60008054906101000a900473ffffffffffffffffffffffffffffffffffffffff1681565b600080fd5b600073ffffffffffffffffffffffffffffffffffffffff82169050919050565b60006100d0826100a5565b9050919050565b6100e0816100c5565b81146100eb57600080fd5b50565b6000813590506100fd816100d7565b92915050565b6000819050919050565b61011681610103565b811461012157600080fd5b50565b6000813590506101338161010d565b92915050565b600080600080600060a08688031215610155576101546100a0565b5b6000610163888289016100ee565b9550506020610174888289016100ee565b9450506040610185888289016100ee565b935050606061019688828901610124565b92505060806101a788828901610124565b9150509295509295909350565b6000819050919050565b60006101d96101d46101cf846100a5565b6101b4565b6100a5565b9050919050565b60006101eb826101be565b9050919050565b60006101fd826101e0565b9050919050565b61020d816101f2565b82525050565b60006020820190506102286000830184610204565b9291505056fea2646970667358221220267f2b70e5f88c287e4cfbcac173b9ca5f29f01e26ca54532670875edb91a44d64736f6c634300081c0033",
  "linkReferences": {},
  "deployedLinkReferences": {}
}