{
  "_format": "hh-sol-artifact-1",
  "contractName": "Pair",
  "sourceName": "contracts/Pair.sol",
  "abi": [
    {
      "inputs": [],
      "stateMutability": "nonpayable",
      "type": "constructor"
    },
    {
      "inputs": [
        {
          "internalType": "address",
          "name": "spender",
          "type": "address"
        },
        {
          "internalType": "uint256",
          "name": "allowance",
          "type": "uint256"
        },
        {
          "internalType": "uint256",
          "name": "needed",
          "type": "uint256"
        }
      ],
      "name": "ERC20InsufficientAllowance",
      "type": "error"
    },
    {
      "inputs": [
        {
          "internalType": "address",
          "name": "sender",
          "type": "address"
        },
        {
          "internalType": "uint256",
          "name": "balance",
          "type": "uint256"
        },
        {
          "internalType": "uint256",
          "name": "needed",
          "type": "uint256"
        }
      ],
      "name": "ERC20InsufficientBalance",
      "type": "error"
    },
    {
      "inputs": [
        {
          "internalType": "address",
          "name": "approver",
          "type": "address"
        }
      ],
      "name": "ERC20InvalidApprover",
      "type": "error"
    },
    {
      "inputs": [
        {
          "internalType": "address",
          "name": "receiver",
          "type": "address"
        }
      ],
      "name": "ERC20InvalidReceiver",
      "type": "error"
    },
    {
      "inputs": [
        {
          "internalType": "address",
          "name": "sender",
          "type": "address"
        }
      ],
      "name": "ERC20InvalidSender",
      "type": "error"
    },
    {
      "inputs": [
        {
          "internalType": "address",
          "name": "spender",
          "type": "address"
        }
      ],
      "name": "ERC20InvalidSpender",
      "type": "error"
    },
    {
      "anonymous": false,
      "inputs": [
        {
          "indexed": true,
          "internalType": "address",
          "name": "owner",
          "type": "address"
        },
        {
          "indexed": true,
          "internalType": "address",
          "name": "spender",
          "type": "address"
        },
        {
          "indexed": false,
          "internalType": "uint256",
          "name": "value",
          "type": "uint256"
        }
      ],
      "name": "Approval",
      "type": "event"
    },
    {
      "anonymous": false,
      "inputs": [
        {
          "indexed": true,
          "internalType": "address",
          "name": "from",
          "type": "address"
        },
        {
          "indexed": true,
          "internalType": "address",
          "name": "to",
          "type": "address"
        },
        {
          "indexed": false,
          "internalType": "uint256",
          "name": "value",
          "type": "uint256"
        }
      ],
      "name": "Transfer",
      "type": "event"
    },
    {
      "inputs": [
        {
          "internalType": "address",
          "name": "owner",
          "type": "address"
        },
        {
          "internalType": "address",
          "name": "spender",
          "type": "address"
        }
      ],
      "name": "allowance",
      "outputs": [
        {
          "internalType": "uint256",
          "name": "",
          "type": "uint256"
        }
      ],
      "stateMutability": "view",
      "type": "function"
    },
    {
      "inputs": [
        {
          "internalType": "address",
          "name": "spender",
          "type": "address"
        },
        {
          "internalType": "uint256",
          "name": "value",
          "type": "uint256"
        }
      ],
      "name": "approve",
      "outputs": [
        {
          "internalType": "bool",
          "name": "",
          "type": "bool"
        }
      ],
      "stateMutability": "nonpayable",
      "type": "function"
    },
    {
      "inputs": [
        {
          "internalType": "address",
          "name": "account",
          "type": "address"
        }
      ],
      "name": "balanceOf",
      "outputs": [
        {
          "internalType": "uint256",
          "name": "",
          "type": "uint256"
        }
      ],
      "stateMutability": "view",
      "type": "function"
    },
    {
      "inputs": [
        {
          "internalType": "address",
          "name": "to",
          "type": "address"
        }
      ],
      "name": "burn",
      "outputs": [
        {
          "internalType": "uint256",
          "name": "amount0",
          "type": "uint256"
        },
        {
          "internalType": "uint256",
          "name": "amount1",
          "type": "uint256"
        }
      ],
      "stateMutability": "nonpayable",
      "type": "function"
    },
    {
      "inputs": [],
      "name": "decimals",
      "outputs": [
        {
          "internalType": "uint8",
          "name": "",
          "type": "uint8"
        }
      ],
      "stateMutability": "view",
      "type": "function"
    },
    {
      "inputs": [
        {
          "internalType": "address",
          "name": "_token0",
          "type": "address"
        },
        {
          "internalType": "address",
          "name": "_token1",
          "type": "address"
        }
      ],
      "name": "initialize",
      "outputs": [],
      "stateMutability": "nonpayable",
      "type": "function"
    },
    {
      "inputs": [
        {
          "internalType": "address",
          "name": "to",
          "type": "address"
        },
        {
          "internalType": "uint256",
          "name": "amount0",
          "type": "uint256"
        },
        {
          "internalType": "uint256",
          "name": "amount1",
          "type": "uint256"
        }
      ],
      "name": "mint",
      "outputs": [
        {
          "internalType": "uint256",
          "name": "liquidity",
          "type": "uint256"
        }
      ],
      "stateMutability": "nonpayable",
      "type": "function"
    },
    {
      "inputs": [],
      "name": "name",
      "outputs": [
        {
          "internalType": "string",
          "name": "",
          "type": "string"
        }
      ],
      "stateMutability": "view",
      "type": "function"
    },
    {
      "inputs": [],
      "name": "reserve0",
      "outputs": [
        {
          "internalType": "uint112",
          "name": "",
          "type": "uint112"
        }
      ],
      "stateMutability": "view",
      "type": "function"
    },
    {
      "inputs": [],
      "name": "reserve1",
      "outputs": [
        {
          "internalType": "uint112",
          "name": "",
          "type": "uint112"
        }
      ],
      "stateMutability": "view",
      "type": "function"
    },
    {
      "inputs": [
        {
          "internalType": "uint256",
          "name": "amount0Out",
          "type": "uint256"
        },
        {
          "internalType": "uint256",
          "name": "amount1Out",
          "type": "uint256"
        },
        {
          "internalType": "address",
          "name": "to",
          "type": "address"
        }
      ],
      "name": "swap",
      "outputs": [],
      "stateMutability": "nonpayable",
      "type": "function"
    },
    {
      "inputs": [],
      "name": "symbol",
      "outputs": [
        {
          "internalType": "string",
          "name": "",
          "type": "string"
        }
      ],
      "stateMutability": "view",
      "type": "function"
    },
    {
      "inputs": [],
      "name": "token0",
      "outputs": [
        {
          "internalType": "address",
          "name": "",
          "type": "address"
        }
      ],
      "stateMutability": "view",
      "type": "function"
    },
    {
      "inputs": [],
      "name": "token1",
      "outputs": [
        {
          "internalType": "address",
          "name": "",
          "type": "address"
        }
      ],
      "stateMutability": "view",
      "type": "function"
    },
    {
      "inputs": [],
      "name": "totalSupply",
      "outputs": [
        {
          "internalType": "uint256",
          "name": "",
          "type": "uint256"
        }
      ],
      "stateMutability": "view",
      "type": "function"
    },
    {
      "inputs": [
        {
          "internalType": "address",
          "name": "to",
          "type": "address"
        },
        {
          "internalType": "uint256",
          "name": "value",
          "type": "uint256"
        }
      ],
      "name": "transfer",
      "outputs": [
        {
          "internalType": "bool",
          "name": "",
          "type": "bool"
        }
      ],
      "stateMutability": "nonpayable",
      "type": "function"
    },
    {
      "inputs": [
        {
          "internalType": "address",
          "name": "from",
          "type": "address"
        },
        {
          "internalType": "address",
          "name": "to",
          "type": "address"
        },
        {
          "internalType": "uint256",
          "name": "value",
          "type": "uint256"
        }
      ],
      "name": "transferFrom",
      "outputs": [
        {
          "internalType": "bool",
          "name": "",
          "type": "bool"
        }
      ],
      "stateMutability": "nonpayable",
      "type": "function"
    }
  ],
  "bytecode": "0x608060405234801561001057600080fd5b506040518060400160405280600881526020017f4c5020546f6b656e0000000000000000000000000000000000000000000000008152506040518060400160405280600381526020017f4c50540000000000000000000000000000000000000000000000000000000000815250816003908161008c91906102f4565b50806004908161009c91906102f4565b5050506103c6565b600081519050919050565b7f4e487b7100000000000000000000000000000000000000000000000000000000600052604160045260246000fd5b7f4e487b7100000000000000000000000000000000000000000000000000000000600052602260045260246000fd5b6000600282049050600182168061012557607f821691505b602082108103610138576101376100de565b5b50919050565b60008190508160005260206000209050919050565b60006020601f8301049050919050565b600082821b905092915050565b6000600883026101a07fffffffffffffffffffffffffffffffffffffffffffffffffffffffffffffffff82610163565b6101aa8683610163565b95508019841693508086168417925050509392505050565b6000819050919050565b6000819050919050565b60006101f16101ec6101e7846101c2565b6101cc565b6101c2565b9050919050565b6000819050919050565b61020b836101d6565b61021f610217826101f8565b848454610170565b825550505050565b600090565b610234610227565b61023f818484610202565b505050565b5b818110156102635761025860008261022c565b600181019050610245565b5050565b601f8211156102a8576102798161013e565b61028284610153565b81016020851015610291578190505b6102a561029d85610153565b830182610244565b50505b505050565b600082821c905092915050565b60006102cb600019846008026102ad565b1980831691505092915050565b60006102e483836102ba565b9150826002028217905092915050565b6102fd826100a4565b67ffffffffffffffff811115610316576103156100af565b5b610320825461010d565b61032b828285610267565b600060209050601f83116001811461035e576000841561034c578287015190505b61035685826102d8565b8655506103be565b601f19841661036c8661013e565b60005b828110156103945784890151825560018201915060208501945060208101905061036f565b868310156103b157848901516103ad601f8916826102ba565b8355505b6001600288020188555050505b505050505050565b611c55806103d56000396000f3fe608060405234801561001057600080fd5b506004361061010b5760003560e01c8063485cc955116100a257806389afcb441161007157806389afcb44146102bc57806395d89b41146102ed578063a9059cbb1461030b578063d21220a71461033b578063dd62ed3e146103595761010b565b8063485cc955146102365780635a76f25e146102525780636d9a640a1461027057806370a082311461028c5761010b565b806318160ddd116100de57806318160ddd146101ac57806323b872dd146101ca578063313ce567146101fa578063443cb4bc146102185761010b565b806306fdde0314610110578063095ea7b31461012e5780630dfe16811461015e578063156e29f61461017c575b600080fd5b610118610389565b60405161012591906114ec565b60405180910390f35b610148600480360381019061014391906115a7565b61041b565b6040516101559190611602565b60405180910390f35b61016661043e565b604051610173919061162c565b60405180910390f35b61019660048036038101906101919190611647565b610464565b6040516101a391906116a9565b60405180910390f35b6101b461053f565b6040516101c191906116a9565b60405180910390f35b6101e460048036038101906101df91906116c4565b610549565b6040516101f19190611602565b60405180910390f35b610202610578565b60405161020f9190611733565b60405180910390f35b610220610581565b60405161022d9190611777565b60405180910390f35b610250600480360381019061024b9190611792565b6105a1565b005b61025a610712565b6040516102679190611777565b60405180910390f35b61028a600480360381019061028591906117d2565b610732565b005b6102a660048036038101906102a19190611825565b610980565b6040516102b391906116a9565b60405180910390f35b6102d660048036038101906102d19190611825565b6109c8565b6040516102e4929190611852565b60405180910390f35b6102f5610c57565b60405161030291906114ec565b60405180910390f35b610325600480360381019061032091906115a7565b610ce9565b6040516103329190611602565b60405180910390f35b610343610d0c565b604051610350919061162c565b60405180910390f35b610373600480360381019061036e9190611792565b610d32565b60405161038091906116a9565b60405180910390f35b606060038054610398906118aa565b80601f01602080910402602001604051908101604052809291908181526020018280546103c4906118aa565b80156104115780601f106103e657610100808354040283529160200191610411565b820191906000526020600020905b8154815290600101906020018083116103f457829003601f168201915b5050505050905090565b600080610426610db9565b9050610433818585610dc1565b600191505092915050565b600560009054906101000a900473ffffffffffffffffffffffffffffffffffffffff1681565b600082600760008282829054906101000a90046dffffffffffffffffffffffffffff16610491919061190a565b92506101000a8154816dffffffffffffffffffffffffffff02191690836dffffffffffffffffffffffffffff160217905550816007600e8282829054906101000a90046dffffffffffffffffffffffffffff166104ee919061190a565b92506101000a8154816dffffffffffffffffffffffffffff02191690836dffffffffffffffffffffffffffff160217905550818361052c919061194c565b90506105388482610dd3565b9392505050565b6000600254905090565b600080610554610db9565b9050610561858285610e55565b61056c858585610eea565b60019150509392505050565b60006012905090565b600760009054906101000a90046dffffffffffffffffffffffffffff1681565b600073ffffffffffffffffffffffffffffffffffffffff16600560009054906101000a900473ffffffffffffffffffffffffffffffffffffffff1673ffffffffffffffffffffffffffffffffffffffff1614801561064d5750600073ffffffffffffffffffffffffffffffffffffffff16600660009054906101000a900473ffffffffffffffffffffffffffffffffffffffff1673ffffffffffffffffffffffffffffffffffffffff16145b61068c576040517f08c379a0000000000000000000000000000000000000000000000000000000008152600401610683906119cc565b60405180910390fd5b81600560006101000a81548173ffffffffffffffffffffffffffffffffffffffff021916908373ffffffffffffffffffffffffffffffffffffffff16021790555080600660006101000a81548173ffffffffffffffffffffffffffffffffffffffff021916908373ffffffffffffffffffffffffffffffffffffffff1602179055505050565b6007600e9054906101000a90046dffffffffffffffffffffffffffff1681565b60008311806107415750600082115b610780576040517f08c379a000000000000000000000000000000000000000000000000000000000815260040161077790611a38565b60405180910390fd5b600760009054906101000a90046dffffffffffffffffffffffffffff166dffffffffffffffffffffffffffff16831080156107e657506007600e9054906101000a90046dffffffffffffffffffffffffffff166dffffffffffffffffffffffffffff1682105b610825576040517f08c379a000000000000000000000000000000000000000000000000000000000815260040161081c90611aa4565b60405180910390fd5b60008311156108d057600560009054906101000a900473ffffffffffffffffffffffffffffffffffffffff1673ffffffffffffffffffffffffffffffffffffffff1663a9059cbb82856040518363ffffffff1660e01b815260040161088b929190611ac4565b6020604051808303816000875af11580156108aa573d6000803e3d6000fd5b505050506040513d601f19601f820116820180604052508101906108ce9190611b19565b505b600082111561097b57600660009054906101000a900473ffffffffffffffffffffffffffffffffffffffff1673ffffffffffffffffffffffffffffffffffffffff1663a9059cbb82846040518363ffffffff1660e01b8152600401610936929190611ac4565b6020604051808303816000875af1158015610955573d6000803e3d6000fd5b505050506040513d601f19601f820116820180604052508101906109799190611b19565b505b505050565b60008060008373ffffffffffffffffffffffffffffffffffffffff1673ffffffffffffffffffffffffffffffffffffffff168152602001908152602001600020549050919050565b6000806002600760009054906101000a90046dffffffffffffffffffffffffffff166109f49190611b75565b6dffffffffffffffffffffffffffff16915060026007600e9054906101000a90046dffffffffffffffffffffffffffff16610a2f9190611b75565b6dffffffffffffffffffffffffffff16905081600760008282829054906101000a90046dffffffffffffffffffffffffffff16610a6c9190611ba6565b92506101000a8154816dffffffffffffffffffffffffffff02191690836dffffffffffffffffffffffffffff160217905550806007600e8282829054906101000a90046dffffffffffffffffffffffffffff16610ac99190611ba6565b92506101000a8154816dffffffffffffffffffffffffffff02191690836dffffffffffffffffffffffffffff160217905550610b10338284610b0b919061194c565b610fde565b600560009054906101000a900473ffffffffffffffffffffffffffffffffffffffff1673ffffffffffffffffffffffffffffffffffffffff1663a9059cbb84846040518363ffffffff1660e01b8152600401610b6d929190611ac4565b6020604051808303816000875af1158015610b8c573d6000803e3d6000fd5b505050506040513d601f19601f82011682018060405250810190610bb09190611b19565b50600660009054906101000a900473ffffffffffffffffffffffffffffffffffffffff1673ffffffffffffffffffffffffffffffffffffffff1663a9059cbb84836040518363ffffffff1660e01b8152600401610c0e929190611ac4565b6020604051808303816000875af1158015610c2d573d6000803e3d6000fd5b505050506040513d601f19601f82011682018060405250810190610c519190611b19565b50915091565b606060048054610c66906118aa565b80601f0160208091040260200160405190810160405280929190818152602001828054610c92906118aa565b8015610cdf5780601f10610cb457610100808354040283529160200191610cdf565b820191906000526020600020905b815481529060010190602001808311610cc257829003601f168201915b5050505050905090565b600080610cf4610db9565b9050610d01818585610eea565b600191505092915050565b600660009054906101000a900473ffffffffffffffffffffffffffffffffffffffff1681565b6000600160008473ffffffffffffffffffffffffffffffffffffffff1673ffffffffffffffffffffffffffffffffffffffff16815260200190815260200160002060008373ffffffffffffffffffffffffffffffffffffffff1673ffffffffffffffffffffffffffffffffffffffff16815260200190815260200160002054905092915050565b600033905090565b610dce8383836001611060565b505050565b600073ffffffffffffffffffffffffffffffffffffffff168273ffffffffffffffffffffffffffffffffffffffff1603610e455760006040517fec442f05000000000000000000000000000000000000000000000000000000008152600401610e3c919061162c565b60405180910390fd5b610e5160008383611237565b5050565b6000610e618484610d32565b90507fffffffffffffffffffffffffffffffffffffffffffffffffffffffffffffffff811015610ee45781811015610ed4578281836040517ffb8f41b2000000000000000000000000000000000000000000000000000000008152600401610ecb93929190611be8565b60405180910390fd5b610ee384848484036000611060565b5b50505050565b600073ffffffffffffffffffffffffffffffffffffffff168373ffffffffffffffffffffffffffffffffffffffff1603610f5c5760006040517f96c6fd1e000000000000000000000000000000000000000000000000000000008152600401610f53919061162c565b60405180910390fd5b600073ffffffffffffffffffffffffffffffffffffffff168273ffffffffffffffffffffffffffffffffffffffff1603610fce5760006040517fec442f05000000000000000000000000000000000000000000000000000000008152600401610fc5919061162c565b60405180910390fd5b610fd9838383611237565b505050565b600073ffffffffffffffffffffffffffffffffffffffff168273ffffffffffffffffffffffffffffffffffffffff16036110505760006040517f96c6fd1e000000000000000000000000000000000000000000000000000000008152600401611047919061162c565b60405180910390fd5b61105c82600083611237565b5050565b600073ffffffffffffffffffffffffffffffffffffffff168473ffffffffffffffffffffffffffffffffffffffff16036110d25760006040517fe602df050000000000000000000000000000000000000000000000000000000081526004016110c9919061162c565b60405180910390fd5b600073ffffffffffffffffffffffffffffffffffffffff168373ffffffffffffffffffffffffffffffffffffffff16036111445760006040517f94280d6200000000000000000000000000000000000000000000000000000000815260040161113b919061162c565b60405180910390fd5b81600160008673ffffffffffffffffffffffffffffffffffffffff1673ffffffffffffffffffffffffffffffffffffffff16815260200190815260200160002060008573ffffffffffffffffffffffffffffffffffffffff1673ffffffffffffffffffffffffffffffffffffffff168152602001908152602001600020819055508015611231578273ffffffffffffffffffffffffffffffffffffffff168473ffffffffffffffffffffffffffffffffffffffff167f8c5be1e5ebec7d5bd14f71427d1e84f3dd0314c0f7b2291e5b200ac8c7c3b9258460405161122891906116a9565b60405180910390a35b50505050565b600073ffffffffffffffffffffffffffffffffffffffff168373ffffffffffffffffffffffffffffffffffffffff160361128957806002600082825461127d919061194c565b9250508190555061135c565b60008060008573ffffffffffffffffffffffffffffffffffffffff1673ffffffffffffffffffffffffffffffffffffffff16815260200190815260200160002054905081811015611315578381836040517fe450d38c00000000000000000000000000000000000000000000000000000000815260040161130c93929190611be8565b60405180910390fd5b8181036000808673ffffffffffffffffffffffffffffffffffffffff1673ffffffffffffffffffffffffffffffffffffffff16815260200190815260200160002081905550505b600073ffffffffffffffffffffffffffffffffffffffff168273ffffffffffffffffffffffffffffffffffffffff16036113a557806002600082825403925050819055506113f2565b806000808473ffffffffffffffffffffffffffffffffffffffff1673ffffffffffffffffffffffffffffffffffffffff168152602001908152602001600020600082825401925050819055505b8173ffffffffffffffffffffffffffffffffffffffff168373ffffffffffffffffffffffffffffffffffffffff167fddf252ad1be2c89b69c2b068fc378daa952ba7f163c4a11628f55a4df523b3ef8360405161144f91906116a9565b60405180910390a3505050565b600081519050919050565b600082825260208201905092915050565b60005b8381101561149657808201518184015260208101905061147b565b60008484015250505050565b6000601f19601f8301169050919050565b60006114be8261145c565b6114c88185611467565b93506114d8818560208601611478565b6114e1816114a2565b840191505092915050565b6000602082019050818103600083015261150681846114b3565b905092915050565b600080fd5b600073ffffffffffffffffffffffffffffffffffffffff82169050919050565b600061153e82611513565b9050919050565b61154e81611533565b811461155957600080fd5b50565b60008135905061156b81611545565b92915050565b6000819050919050565b61158481611571565b811461158f57600080fd5b50565b6000813590506115a18161157b565b92915050565b600080604083850312156115be576115bd61150e565b5b60006115cc8582860161155c565b92505060206115dd85828601611592565b9150509250929050565b60008115159050919050565b6115fc816115e7565b82525050565b600060208201905061161760008301846115f3565b92915050565b61162681611533565b82525050565b6000602082019050611641600083018461161d565b92915050565b6000806000606084860312156116605761165f61150e565b5b600061166e8682870161155c565b935050602061167f86828701611592565b925050604061169086828701611592565b9150509250925092565b6116a381611571565b82525050565b60006020820190506116be600083018461169a565b92915050565b6000806000606084860312156116dd576116dc61150e565b5b60006116eb8682870161155c565b93505060206116fc8682870161155c565b925050604061170d86828701611592565b9150509250925092565b600060ff82169050919050565b61172d81611717565b82525050565b60006020820190506117486000830184611724565b92915050565b60006dffffffffffffffffffffffffffff82169050919050565b6117718161174e565b82525050565b600060208201905061178c6000830184611768565b92915050565b600080604083850312156117a9576117a861150e565b5b60006117b78582860161155c565b92505060206117c88582860161155c565b9150509250929050565b6000806000606084860312156117eb576117ea61150e565b5b60006117f986828701611592565b935050602061180a86828701611592565b925050604061181b8682870161155c565b9150509250925092565b60006020828403121561183b5761183a61150e565b5b60006118498482850161155c565b91505092915050565b6000604082019050611867600083018561169a565b611874602083018461169a565b9392505050565b7f4e487b7100000000000000000000000000000000000000000000000000000000600052602260045260246000fd5b600060028204905060018216806118c257607f821691505b6020821081036118d5576118d461187b565b5b50919050565b7f4e487b7100000000000000000000000000000000000000000000000000000000600052601160045260246000fd5b60006119158261174e565b91506119208361174e565b925082820190506dffffffffffffffffffffffffffff811115611946576119456118db565b5b92915050565b600061195782611571565b915061196283611571565b925082820190508082111561197a576119796118db565b5b92915050565b7f506169723a20414c52454144595f494e495449414c495a454400000000000000600082015250565b60006119b6601983611467565b91506119c182611980565b602082019050919050565b600060208201905081810360008301526119e5816119a9565b9050919050565b7f506169723a20494e53554646494349454e545f4f55545055545f414d4f554e54600082015250565b6000611a22602083611467565b9150611a2d826119ec565b602082019050919050565b60006020820190508181036000830152611a5181611a15565b9050919050565b7f506169723a20494e53554646494349454e545f4c495155494449545900000000600082015250565b6000611a8e601c83611467565b9150611a9982611a58565b602082019050919050565b60006020820190508181036000830152611abd81611a81565b9050919050565b6000604082019050611ad9600083018561161d565b611ae6602083018461169a565b9392505050565b611af6816115e7565b8114611b0157600080fd5b50565b600081519050611b1381611aed565b92915050565b600060208284031215611b2f57611b2e61150e565b5b6000611b3d84828501611b04565b91505092915050565b7f4e487b7100000000000000000000000000000000000000000000000000000000600052601260045260246000fd5b6000611b808261174e565b9150611b8b8361174e565b925082611b9b57611b9a611b46565b5b828204905092915050565b6000611bb18261174e565b9150611bbc8361174e565b925082820390506dffffffffffffffffffffffffffff811115611be257611be16118db565b5b92915050565b6000606082019050611bfd600083018661161d565b611c0a602083018561169a565b611c17604083018461169a565b94935050505056fea2646970667358221220a6e87b79f6604a78f71d08f49847954b4b46ed31624b7cfb8414c3626b8895af64736f6c634300081c0033",
  "linkReferences": {},
  "deployedLinkReferences": {}
}