{
  "_format": "hh-sol-artifact-1",
  "contractName": "Router",
  "sourceName": "contracts/Router.sol",
  "abi": [
    {
      "inputs": [
        {
          "internalType": "address",
          "name": "_factory",
          "type": "address"
        },
        {
          "internalType": "address",
          "name": "_wtrbtc",
          "type": "address"
        }
      ],
      "stateMutability": "nonpayable",
      "type": "constructor"
    },
    {
      "inputs": [
        {
          "internalType": "address",
          "name": "tokenA",
          "type": "address"
        },
        {
          "internalType": "address",
          "name": "tokenB",
          "type": "address"
        },
        {
          "internalType": "uint256",
          "name": "amountA",
          "type": "uint256"
        },
        {
          "internalType": "uint256",
          "name": "amountB",
          "type": "uint256"
        }
      ],
      "name": "addLiquidity",
      "outputs": [],
      "stateMutability": "nonpayable",
      "type": "function"
    },
    {
      "inputs": [],
      "name": "factory",
      "outputs": [
        {
          "internalType": "address",
          "name": "",
          "type": "address"
        }
      ],
      "stateMutability": "view",
      "type": "function"
    },
    {
      "inputs": [],
      "name": "wtrbtc",
      "outputs": [
        {
          "internalType": "address",
          "name": "",
          "type": "address"
        }
      ],
      "stateMutability": "view",
      "type": "function"
    }
  ],
  "bytecode": "0x608060405234801561001057600080fd5b506040516108433803806108438339818101604052810190610032919061011d565b816000806101000a81548173ffffffffffffffffffffffffffffffffffffffff021916908373ffffffffffffffffffffffffffffffffffffffff16021790555080600160006101000a81548173ffffffffffffffffffffffffffffffffffffffff021916908373ffffffffffffffffffffffffffffffffffffffff160217905550505061015d565b600080fd5b600073ffffffffffffffffffffffffffffffffffffffff82169050919050565b60006100ea826100bf565b9050919050565b6100fa816100df565b811461010557600080fd5b50565b600081519050610117816100f1565b92915050565b60008060408385031215610134576101336100ba565b5b600061014285828601610108565b925050602061015385828601610108565b9150509250929050565b6106d78061016c6000396000f3fe608060405234801561001057600080fd5b50600436106100415760003560e01c80638d9f303b14610046578063c45a015514610064578063cf6c62ea14610082575b600080fd5b61004e61009e565b60405161005b9190610429565b60405180910390f35b61006c6100c4565b6040516100799190610429565b60405180910390f35b61009c600480360381019061009791906104ab565b6100e8565b005b600160009054906101000a900473ffffffffffffffffffffffffffffffffffffffff1681565b60008054906101000a900473ffffffffffffffffffffffffffffffffffffffff1681565b60008060009054906101000a900473ffffffffffffffffffffffffffffffffffffffff1673ffffffffffffffffffffffffffffffffffffffff1663e6a4390586866040518363ffffffff1660e01b8152600401610146929190610512565b602060405180830381865afa158015610163573d6000803e3d6000fd5b505050506040513d601f19601f820116820180604052508101906101879190610550565b9050600073ffffffffffffffffffffffffffffffffffffffff168173ffffffffffffffffffffffffffffffffffffffff160361025e5760008054906101000a900473ffffffffffffffffffffffffffffffffffffffff1673ffffffffffffffffffffffffffffffffffffffff1663c9c6539686866040518363ffffffff1660e01b8152600401610218929190610512565b6020604051808303816000875af1158015610237573d6000803e3d6000fd5b505050506040513d601f19601f8201168201806040525081019061025b9190610550565b90505b8473ffffffffffffffffffffffffffffffffffffffff166323b872dd3383866040518463ffffffff1660e01b815260040161029b9392919061058c565b6020604051808303816000875af11580156102ba573d6000803e3d6000fd5b505050506040513d601f19601f820116820180604052508101906102de91906105fb565b508373ffffffffffffffffffffffffffffffffffffffff166323b872dd3383856040518463ffffffff1660e01b815260040161031c9392919061058c565b6020604051808303816000875af115801561033b573d6000803e3d6000fd5b505050506040513d601f19601f8201168201806040525081019061035f91906105fb565b508073ffffffffffffffffffffffffffffffffffffffff1663156e29f63385856040518463ffffffff1660e01b815260040161039d93929190610628565b6020604051808303816000875af11580156103bc573d6000803e3d6000fd5b505050506040513d601f19601f820116820180604052508101906103e09190610674565b505050505050565b600073ffffffffffffffffffffffffffffffffffffffff82169050919050565b6000610413826103e8565b9050919050565b61042381610408565b82525050565b600060208201905061043e600083018461041a565b92915050565b600080fd5b61045281610408565b811461045d57600080fd5b50565b60008135905061046f81610449565b92915050565b6000819050919050565b61048881610475565b811461049357600080fd5b50565b6000813590506104a58161047f565b92915050565b600080600080608085870312156104c5576104c4610444565b5b60006104d387828801610460565b94505060206104e487828801610460565b93505060406104f587828801610496565b925050606061050687828801610496565b91505092959194509250565b6000604082019050610527600083018561041a565b610534602083018461041a565b9392505050565b60008151905061054a81610449565b92915050565b60006020828403121561056657610565610444565b5b60006105748482850161053b565b91505092915050565b61058681610475565b82525050565b60006060820190506105a1600083018661041a565b6105ae602083018561041a565b6105bb604083018461057d565b949350505050565b60008115159050919050565b6105d8816105c3565b81146105e357600080fd5b50565b6000815190506105f5816105cf565b92915050565b60006020828403121561061157610610610444565b5b600061061f848285016105e6565b91505092915050565b600060608201905061063d600083018661041a565b61064a602083018561057d565b610657604083018461057d565b949350505050565b60008151905061066e8161047f565b92915050565b60006020828403121561068a57610689610444565b5b60006106988482850161065f565b9150509291505056fea26469706673582212209165b60d51b3d1141f584546a6368b573343886a80a07d2061587736cd1338ed64736f6c634300081c0033",
  "linkReferences": {},
  "deployedLinkReferences": {}
}