{
  "_format": "hh-sol-artifact-1",
  "contractName": "RebalancerController",
  "sourceName": "contracts/RebalancerController.sol",
  "abi": [
    {
      "inputs": [
        {
          "internalType": "address",
          "name": "_keeper",
          "type": "address"
        },
        {
          "internalType": "uint256",
          "name": "_maxSlippage",
          "type": "uint256"
        },
        {
          "internalType": "uint256",
          "name": "_maxGasPrice",
          "type": "uint256"
        },
        {
          "internalType": "uint256",
          "name": "_cooldown",
          "type": "uint256"
        }
      ],
      "stateMutability": "nonpayable",
      "type": "constructor"
    },
    {
      "inputs": [],
      "name": "cooldown",
      "outputs": [
        {
          "internalType": "uint256",
          "name": "",
          "type": "uint256"
        }
      ],
      "stateMutability": "view",
      "type": "function"
    },
    {
      "inputs": [],
      "name": "keeper",
      "outputs": [
        {
          "internalType": "address",
          "name": "",
          "type": "address"
        }
      ],
      "stateMutability": "view",
      "type": "function"
    },
    {
      "inputs": [
        {
          "internalType": "address",
          "name": "",
          "type": "address"
        }
      ],
      "name": "lastRebalance",
      "outputs": [
        {
          "internalType": "uint256",
          "name": "",
          "type": "uint256"
        }
      ],
      "stateMutability": "view",
      "type": "function"
    },
    {
      "inputs": [],
      "name": "maxGasPrice",
      "outputs": [
        {
          "internalType": "uint256",
          "name": "",
          "type": "uint256"
        }
      ],
      "stateMutability": "view",
      "type": "function"
    },
    {
      "inputs": [],
      "name": "maxSlippage",
      "outputs": [
        {
          "internalType": "uint256",
          "name": "",
          "type": "uint256"
        }
      ],
      "stateMutability": "view",
      "type": "function"
    },
    {
      "inputs": [
        {
          "internalType": "address",
          "name": "pair",
          "type": "address"
        },
        {
          "internalType": "uint256",
          "name": "targetRatioBps",
          "type": "uint256"
        }
      ],
      "name": "rebalance",
      "outputs": [],
      "stateMutability": "nonpayable",
      "type": "function"
    }
  ],
  "bytecode": "0x608060405234801561001057600080fd5b50604051610cd6380380610cd683398181016040528101906100329190610129565b836000806101000a81548173ffffffffffffffffffffffffffffffffffffffff021916908373ffffffffffffffffffffffffffffffffffffffff16021790555082600181905550816002819055508060038190555050505050610190565b600080fd5b600073ffffffffffffffffffffffffffffffffffffffff82169050919050565b60006100c082610095565b9050919050565b6100d0816100b5565b81146100db57600080fd5b50565b6000815190506100ed816100c7565b92915050565b6000819050919050565b610106816100f3565b811461011157600080fd5b50565b600081519050610123816100fd565b92915050565b6000806000806080858703121561014357610142610090565b5b6000610151878288016100de565b945050602061016287828801610114565b935050604061017387828801610114565b925050606061018487828801610114565b91505092959194509250565b610b378061019f6000396000f3fe608060405234801561001057600080fd5b50600436106100625760003560e01c80633da9b9d0146100675780633de39c1114610083578063787a08a6146100a15780638c04166f146100bf578063aced1661146100dd578063fdd0fd2d146100fb575b600080fd5b610081600480360381019061007c9190610763565b61012b565b005b61008b61054e565b60405161009891906107b2565b60405180910390f35b6100a9610554565b6040516100b691906107b2565b60405180910390f35b6100c761055a565b6040516100d491906107b2565b60405180910390f35b6100e5610560565b6040516100f291906107dc565b60405180910390f35b610115600480360381019061011091906107f7565b610584565b60405161012291906107b2565b60405180910390f35b60008054906101000a900473ffffffffffffffffffffffffffffffffffffffff1673ffffffffffffffffffffffffffffffffffffffff163373ffffffffffffffffffffffffffffffffffffffff16146101b9576040517f08c379a00000000000000000000000000000000000000000000000000000000081526004016101b090610881565b60405180910390fd5b600354600460008473ffffffffffffffffffffffffffffffffffffffff1673ffffffffffffffffffffffffffffffffffffffff1681526020019081526020016000205461020691906108d0565b4211610247576040517f08c379a000000000000000000000000000000000000000000000000000000000815260040161023e90610950565b60405180910390fd5b60008273ffffffffffffffffffffffffffffffffffffffff16630dfe16816040518163ffffffff1660e01b8152600401602060405180830381865afa158015610294573d6000803e3d6000fd5b505050506040513d601f19601f820116820180604052508101906102b89190610985565b905060008373ffffffffffffffffffffffffffffffffffffffff1663d21220a76040518163ffffffff1660e01b8152600401602060405180830381865afa158015610307573d6000803e3d6000fd5b505050506040513d601f19601f8201168201806040525081019061032b9190610985565b905060008273ffffffffffffffffffffffffffffffffffffffff166370a08231866040518263ffffffff1660e01b815260040161036891906107dc565b602060405180830381865afa158015610385573d6000803e3d6000fd5b505050506040513d601f19601f820116820180604052508101906103a991906109c7565b905060008273ffffffffffffffffffffffffffffffffffffffff166370a08231876040518263ffffffff1660e01b81526004016103e691906107dc565b602060405180830381865afa158015610403573d6000803e3d6000fd5b505050506040513d601f19601f8201168201806040525081019061042791906109c7565b90506000816127108461043a91906109f4565b6104449190610a65565b9050858111156104a55760006127108488846104609190610a96565b61046a91906109f4565b6104749190610a65565b9050600084848361048591906109f4565b61048f9190610a65565b905061049e8983838a8a61059c565b5050610501565b858110156105005760006127108383896104bf9190610a96565b6104c991906109f4565b6104d39190610a65565b905060008385836104e491906109f4565b6104ee9190610a65565b90506104fd898383898b61059c565b50505b5b42600460008973ffffffffffffffffffffffffffffffffffffffff1673ffffffffffffffffffffffffffffffffffffffff1681526020019081526020016000208190555050505050505050565b60025481565b60035481565b60015481565b60008054906101000a900473ffffffffffffffffffffffffffffffffffffffff1681565b60046020528060005260406000206000915090505481565b60008573ffffffffffffffffffffffffffffffffffffffff16630dfe16816040518163ffffffff1660e01b8152600401602060405180830381865afa1580156105e9573d6000803e3d6000fd5b505050506040513d601f19601f8201168201806040525081019061060d9190610985565b90506000808273ffffffffffffffffffffffffffffffffffffffff168573ffffffffffffffffffffffffffffffffffffffff160361064d57869150610651565b8690505b8773ffffffffffffffffffffffffffffffffffffffff16636d9a640a8383306040518463ffffffff1660e01b815260040161068e93929190610aca565b600060405180830381600087803b1580156106a857600080fd5b505af11580156106bc573d6000803e3d6000fd5b505050505050505050505050565b600080fd5b600073ffffffffffffffffffffffffffffffffffffffff82169050919050565b60006106fa826106cf565b9050919050565b61070a816106ef565b811461071557600080fd5b50565b60008135905061072781610701565b92915050565b6000819050919050565b6107408161072d565b811461074b57600080fd5b50565b60008135905061075d81610737565b92915050565b6000806040838503121561077a576107796106ca565b5b600061078885828601610718565b92505060206107998582860161074e565b9150509250929050565b6107ac8161072d565b82525050565b60006020820190506107c760008301846107a3565b92915050565b6107d6816106ef565b82525050565b60006020820190506107f160008301846107cd565b92915050565b60006020828403121561080d5761080c6106ca565b5b600061081b84828501610718565b91505092915050565b600082825260208201905092915050565b7f4e6f74206b656570657200000000000000000000000000000000000000000000600082015250565b600061086b600a83610824565b915061087682610835565b602082019050919050565b6000602082019050818103600083015261089a8161085e565b9050919050565b7f4e487b7100000000000000000000000000000000000000000000000000000000600052601160045260246000fd5b60006108db8261072d565b91506108e68361072d565b92508282019050808211156108fe576108fd6108a1565b5b92915050565b7f436f6f6c646f776e000000000000000000000000000000000000000000000000600082015250565b600061093a600883610824565b915061094582610904565b602082019050919050565b600060208201905081810360008301526109698161092d565b9050919050565b60008151905061097f81610701565b92915050565b60006020828403121561099b5761099a6106ca565b5b60006109a984828501610970565b91505092915050565b6000815190506109c181610737565b92915050565b6000602082840312156109dd576109dc6106ca565b5b60006109eb848285016109b2565b91505092915050565b60006109ff8261072d565b9150610a0a8361072d565b9250828202610a188161072d565b91508282048414831517610a2f57610a2e6108a1565b5b5092915050565b7f4e487b7100000000000000000000000000000000000000000000000000000000600052601260045260246000fd5b6000610a708261072d565b9150610a7b8361072d565b925082610a8b57610a8a610a36565b5b828204905092915050565b6000610aa18261072d565b9150610aac8361072d565b9250828203905081811115610ac457610ac36108a1565b5b92915050565b6000606082019050610adf60008301866107a3565b610aec60208301856107a3565b610af960408301846107cd565b94935050505056fea2646970667358221220b67f1fa0dc7dbdb227ba78675575133dedb55778f22c0e8a298fa75ca84638f864736f6c634300081c0033",
  "linkReferences": {},
  "deployedLinkReferences": {}
}