{"contracts/RebalancerController.sol":{"RebalancerController":{"abi":[{"inputs":[{"internalType":"address","name":"_keeper","type":"address"},{"internalType":"uint256","name":"_maxSlippage","type":"uint256"},{"internalType":"uint256","name":"_maxGasPrice","type":"uint256"},{"internalType":"uint256","name":"_cooldown","type":"uint256"}],"stateMutability":"nonpayable","type":"constructor"},{"inputs":[],"name":"cooldown","outputs":[{"internalType":"uint256","name":"","type":"uint256"}],"stateMutability":"view","type":"function"},{"inputs":[],"name":"keeper","outputs":[{"internalType":"address","name":"","type":"address"}],"stateMutability":"view","type":"function"},{"inputs":[{"internalType":"address","name":"","type":"address"}],"name":"lastRebalance","outputs":[{"internalType":"uint256","name":"","type":"uint256"}],"stateMutability":"view","type":"function"},{"inputs":[],"name":"maxGasPrice","outputs":[{"internalType":"uint256","name":"","type":"uint256"}],"stateMutability":"view","type":"function"},{"inputs":[],"name":"maxSlippage","outputs":[{"internalType":"uint256","name":"","type":"uint256"}],"stateMutability":"view","type":"function"},{"inputs":[{"internalType":"address","name":"pair","type":"address"},{"internalType":"uint256","name":"targetRatioBps","type":"uint256"}],"name":"rebalance","outputs":[],"stateMutability":"nonpayable","type":"function"}],"evm":{"bytecode":{"linkReferences":{},"object":"608060405234801561001057600080fd5b50604051610cd6380380610cd683398181016040528101906100329190610129565b836000806101000a81548173ffffffffffffffffffffffffffffffffffffffff021916908373ffffffffffffffffffffffffffffffffffffffff16021790555082600181905550816002819055508060038190555050505050610190565b600080fd5b600073ffffffffffffffffffffffffffffffffffffffff82169050919050565b60006100c082610095565b9050919050565b6100d0816100b5565b81146100db57600080fd5b50565b6000815190506100ed816100c7565b92915050565b6000819050919050565b610106816100f3565b811461011157600080fd5b50565b600081519050610123816100fd565b92915050565b6000806000806080858703121561014357610142610090565b5b6000610151878288016100de565b945050602061016287828801610114565b935050604061017387828801610114565b925050606061018487828801610114565b91505092959194509250565b610b378061019f6000396000f3fe608060405234801561001057600080fd5b50600436106100625760003560e01c80633da9b9d0146100675780633de39c1114610083578063787a08a6146100a15780638c04166f146100bf578063aced1661146100dd578063fdd0fd2d146100fb575b600080fd5b610081600480360381019061007c9190610763565b61012b565b005b61008b61054e565b60405161009891906107b2565b60405180910390f35b6100a9610554565b6040516100b691906107b2565b60405180910390f35b6100c761055a565b6040516100d491906107b2565b60405180910390f35b6100e5610560565b6040516100f291906107dc565b60405180910390f35b610115600480360381019061011091906107f7565b610584565b60405161012291906107b2565b60405180910390f35b60008054906101000a900473ffffffffffffffffffffffffffffffffffffffff1673ffffffffffffffffffffffffffffffffffffffff163373ffffffffffffffffffffffffffffffffffffffff16146101b9576040517f08c379a00000000000000000000000000000000000000000000000000000000081526004016101b090610881565b60405180910390fd5b600354600460008473ffffffffffffffffffffffffffffffffffffffff1673ffffffffffffffffffffffffffffffffffffffff1681526020019081526020016000205461020691906108d0565b4211610247576040517f08c379a000000000000000000000000000000000000000000000000000000000815260040161023e90610950565b60405180910390fd5b60008273ffffffffffffffffffffffffffffffffffffffff16630dfe16816040518163ffffffff1660e01b8152600401602060405180830381865afa158015610294573d6000803e3d6000fd5b505050506040513d601f19601f820116820180604052508101906102b89190610985565b905060008373ffffffffffffffffffffffffffffffffffffffff1663d21220a76040518163ffffffff1660e01b8152600401602060405180830381865afa158015610307573d6000803e3d6000fd5b505050506040513d601f19601f8201168201806040525081019061032b9190610985565b905060008273ffffffffffffffffffffffffffffffffffffffff166370a08231866040518263ffffffff1660e01b815260040161036891906107dc565b602060405180830381865afa158015610385573d6000803e3d6000fd5b505050506040513d601f19601f820116820180604052508101906103a991906109c7565b905060008273ffffffffffffffffffffffffffffffffffffffff166370a08231876040518263ffffffff1660e01b81526004016103e691906107dc565b602060405180830381865afa158015610403573d6000803e3d6000fd5b505050506040513d601f19601f8201168201806040525081019061042791906109c7565b90506000816127108461043a91906109f4565b6104449190610a65565b9050858111156104a55760006127108488846104609190610a96565b61046a91906109f4565b6104749190610a65565b9050600084848361048591906109f4565b61048f9190610a65565b905061049e8983838a8a61059c565b5050610501565b858110156105005760006127108383896104bf9190610a96565b6104c991906109f4565b6104d39190610a65565b905060008385836104e491906109f4565b6104ee9190610a65565b90506104fd898383898b61059c565b50505b5b42600460008973ffffffffffffffffffffffffffffffffffffffff1673ffffffffffffffffffffffffffffffffffffffff1681526020019081526020016000208190555050505050505050565b60025481565b60035481565b60015481565b60008054906101000a900473ffffffffffffffffffffffffffffffffffffffff1681565b60046020528060005260406000206000915090505481565b60008573ffffffffffffffffffffffffffffffffffffffff16630dfe16816040518163ffffffff1660e01b8152600401602060405180830381865afa1580156105e9573d6000803e3d6000fd5b505050506040513d601f19601f8201168201806040525081019061060d9190610985565b90506000808273ffffffffffffffffffffffffffffffffffffffff168573ffffffffffffffffffffffffffffffffffffffff160361064d57869150610651565b8690505b8773ffffffffffffffffffffffffffffffffffffffff16636d9a640a8383306040518463ffffffff1660e01b815260040161068e93929190610aca565b600060405180830381600087803b1580156106a857600080fd5b505af11580156106bc573d6000803e3d6000fd5b505050505050505050505050565b600080fd5b600073ffffffffffffffffffffffffffffffffffffffff82169050919050565b60006106fa826106cf565b9050919050565b61070a816106ef565b811461071557600080fd5b50565b60008135905061072781610701565b92915050565b6000819050919050565b6107408161072d565b811461074b57600080fd5b50565b60008135905061075d81610737565b92915050565b6000806040838503121561077a576107796106ca565b5b600061078885828601610718565b92505060206107998582860161074e565b9150509250929050565b6107ac8161072d565b82525050565b60006020820190506107c760008301846107a3565b92915050565b6107d6816106ef565b82525050565b60006020820190506107f160008301846107cd565b92915050565b60006020828403121561080d5761080c6106ca565b5b600061081b84828501610718565b91505092915050565b600082825260208201905092915050565b7f4e6f74206b656570657200000000000000000000000000000000000000000000600082015250565b600061086b600a83610824565b915061087682610835565b602082019050919050565b6000602082019050818103600083015261089a8161085e565b9050919050565b7f4e487b7100000000000000000000000000000000000000000000000000000000600052601160045260246000fd5b60006108db8261072d565b91506108e68361072d565b92508282019050808211156108fe576108fd6108a1565b5b92915050565b7f436f6f6c646f776e000000000000000000000000000000000000000000000000600082015250565b600061093a600883610824565b915061094582610904565b602082019050919050565b600060208201905081810360008301526109698161092d565b9050919050565b60008151905061097f81610701565b92915050565b60006020828403121561099b5761099a6106ca565b5b60006109a984828501610970565b91505092915050565b6000815190506109c181610737565b92915050565b6000602082840312156109dd576109dc6106ca565b5b60006109eb848285016109b2565b91505092915050565b60006109ff8261072d565b9150610a0a8361072d565b9250828202610a188161072d565b91508282048414831517610a2f57610a2e6108a1565b5b5092915050565b7f4e487b7100000000000000000000000000000000000000000000000000000000600052601260045260246000fd5b6000610a708261072d565b9150610a7b8361072d565b925082610a8b57610a8a610a36565b5b828204905092915050565b6000610aa18261072d565b9150610aac8361072d565b9250828203905081811115610ac457610ac36108a1565b5b92915050565b6000606082019050610adf60008301866107a3565b610aec60208301856107a3565b610af960408301846107cd565b94935050505056fea26469706673582212206db0124cc436bb92bd3243c7ce8b8a7ba74538d12fca84cff588c3143be122ab64736f6c634300081c0033","opcodes":"PUSH1 0x80 PUSH1 0x40 MSTORE CALLVALUE DUP1 ISZERO PUSH2 0x10 JUMPI PUSH1 0x0 DUP1 REVERT JUMPDEST POP PUSH1 0x40 MLOAD PUSH2 0xCD6 CODESIZE SUB DUP1 PUSH2 0xCD6 DUP4 CODECOPY DUP2 DUP2 ADD PUSH1 0x40 MSTORE DUP2 ADD SWAP1 PUSH2 0x32 SWAP2 SWAP1 PUSH2 0x129 JUMP JUMPDEST DUP4 PUSH1 0x0 DUP1 PUSH2 0x100 EXP DUP2 SLOAD DUP2 PUSH20 0xFFFFFFFFFFFFFFFFFFFFFFFFFFFFFFFFFFFFFFFF MUL NOT AND SWAP1 DUP4 PUSH20 0xFFFFFFFFFFFFFFFFFFFFFFFFFFFFFFFFFFFFFFFF AND MUL OR SWAP1 SSTORE POP DUP3 PUSH1 0x1 DUP2 SWAP1 SSTORE POP DUP2 PUSH1 0x2 DUP2 SWAP1 SSTORE POP DUP1 PUSH1 0x3 DUP2 SWAP1 SSTORE POP POP POP POP POP PUSH2 0x190 JUMP JUMPDEST PUSH1 0x0 DUP1 REVERT JUMPDEST PUSH1 0x0 PUSH20 0xFFFFFFFFFFFFFFFFFFFFFFFFFFFFFFFFFFFFFFFF DUP3 AND SWAP1 POP SWAP2 SWAP1 POP JUMP JUMPDEST PUSH1 0x0 PUSH2 0xC0 DUP3 PUSH2 0x95 JUMP JUMPDEST SWAP1 POP SWAP2 SWAP1 POP JUMP JUMPDEST PUSH2 0xD0 DUP2 PUSH2 0xB5 JUMP JUMPDEST DUP2 EQ PUSH2 0xDB JUMPI PUSH1 0x0 DUP1 REVERT JUMPDEST POP JUMP JUMPDEST PUSH1 0x0 DUP2 MLOAD SWAP1 POP PUSH2 0xED DUP2 PUSH2 0xC7 JUMP JUMPDEST SWAP3 SWAP2 POP POP JUMP JUMPDEST PUSH1 0x0 DUP2 SWAP1 POP SWAP2 SWAP1 POP JUMP JUMPDEST PUSH2 0x106 DUP2 PUSH2 0xF3 JUMP JUMPDEST DUP2 EQ PUSH2 0x111 JUMPI PUSH1 0x0 DUP1 REVERT JUMPDEST POP JUMP JUMPDEST PUSH1 0x0 DUP2 MLOAD SWAP1 POP PUSH2 0x123 DUP2 PUSH2 0xFD JUMP JUMPDEST SWAP3 SWAP2 POP POP JUMP JUMPDEST PUSH1 0x0 DUP1 PUSH1 0x0 DUP1 PUSH1 0x80 DUP6 DUP8 SUB SLT ISZERO PUSH2 0x143 JUMPI PUSH2 0x142 PUSH2 0x90 JUMP JUMPDEST JUMPDEST PUSH1 0x0 PUSH2 0x151 DUP8 DUP3 DUP9 ADD PUSH2 0xDE JUMP JUMPDEST SWAP5 POP POP PUSH1 0x20 PUSH2 0x162 DUP8 DUP3 DUP9 ADD PUSH2 0x114 JUMP JUMPDEST SWAP4 POP POP PUSH1 0x40 PUSH2 0x173 DUP8 DUP3 DUP9 ADD PUSH2 0x114 JUMP JUMPDEST SWAP3 POP POP PUSH1 0x60 PUSH2 0x184 DUP8 DUP3 DUP9 ADD PUSH2 0x114 JUMP JUMPDEST SWAP2 POP POP SWAP3 SWAP6 SWAP2 SWAP5 POP SWAP3 POP JUMP JUMPDEST PUSH2 0xB37 DUP1 PUSH2 0x19F PUSH1 0x0 CODECOPY PUSH1 0x0 RETURN INVALID PUSH1 0x80 PUSH1 0x40 MSTORE CALLVALUE DUP1 ISZERO PUSH2 0x10 JUMPI PUSH1 0x0 DUP1 REVERT JUMPDEST POP PUSH1 0x4 CALLDATASIZE LT PUSH2 0x62 JUMPI PUSH1 0x0 CALLDATALOAD PUSH1 0xE0 SHR DUP1 PUSH4 0x3DA9B9D0 EQ PUSH2 0x67 JUMPI DUP1 PUSH4 0x3DE39C11 EQ PUSH2 0x83 JUMPI DUP1 PUSH4 0x787A08A6 EQ PUSH2 0xA1 JUMPI DUP1 PUSH4 0x8C04166F EQ PUSH2 0xBF JUMPI DUP1 PUSH4 0xACED1661 EQ PUSH2 0xDD JUMPI DUP1 PUSH4 0xFDD0FD2D EQ PUSH2 0xFB JUMPI JUMPDEST PUSH1 0x0 DUP1 REVERT JUMPDEST PUSH2 0x81 PUSH1 0x4 DUP1 CALLDATASIZE SUB DUP2 ADD SWAP1 PUSH2 0x7C SWAP2 SWAP1 PUSH2 0x763 JUMP JUMPDEST PUSH2 0x12B JUMP JUMPDEST STOP JUMPDEST PUSH2 0x8B PUSH2 0x54E JUMP JUMPDEST PUSH1 0x40 MLOAD PUSH2 0x98 SWAP2 SWAP1 PUSH2 0x7B2 JUMP JUMPDEST PUSH1 0x40 MLOAD DUP1 SWAP2 SUB SWAP1 RETURN JUMPDEST PUSH2 0xA9 PUSH2 0x554 JUMP JUMPDEST PUSH1 0x40 MLOAD PUSH2 0xB6 SWAP2 SWAP1 PUSH2 0x7B2 JUMP JUMPDEST PUSH1 0x40 MLOAD DUP1 SWAP2 SUB SWAP1 RETURN JUMPDEST PUSH2 0xC7 PUSH2 0x55A JUMP JUMPDEST PUSH1 0x40 MLOAD PUSH2 0xD4 SWAP2 SWAP1 PUSH2 0x7B2 JUMP JUMPDEST PUSH1 0x40 MLOAD DUP1 SWAP2 SUB SWAP1 RETURN JUMPDEST PUSH2 0xE5 PUSH2 0x560 JUMP JUMPDEST PUSH1 0x40 MLOAD PUSH2 0xF2 SWAP2 SWAP1 PUSH2 0x7DC JUMP JUMPDEST PUSH1 0x40 MLOAD DUP1 SWAP2 SUB SWAP1 RETURN JUMPDEST PUSH2 0x115 PUSH1 0x4 DUP1 CALLDATASIZE SUB DUP2 ADD SWAP1 PUSH2 0x110 SWAP2 SWAP1 PUSH2 0x7F7 JUMP JUMPDEST PUSH2 0x584 JUMP JUMPDEST PUSH1 0x40 MLOAD PUSH2 0x122 SWAP2 SWAP1 PUSH2 0x7B2 JUMP JUMPDEST PUSH1 0x40 MLOAD DUP1 SWAP2 SUB SWAP1 RETURN JUMPDEST PUSH1 0x0 DUP1 SLOAD SWAP1 PUSH2 0x100 EXP SWAP1 DIV PUSH20 0xFFFFFFFFFFFFFFFFFFFFFFFFFFFFFFFFFFFFFFFF AND PUSH20 0xFFFFFFFFFFFFFFFFFFFFFFFFFFFFFFFFFFFFFFFF AND CALLER PUSH20 0xFFFFFFFFFFFFFFFFFFFFFFFFFFFFFFFFFFFFFFFF AND EQ PUSH2 0x1B9 JUMPI PUSH1 0x40 MLOAD PUSH32 0x8C379A000000000000000000000000000000000000000000000000000000000 DUP2 MSTORE PUSH1 0x4 ADD PUSH2 0x1B0 SWAP1 PUSH2 0x881 JUMP JUMPDEST PUSH1 0x40 MLOAD DUP1 SWAP2 SUB SWAP1 REVERT JUMPDEST PUSH1 0x3 SLOAD PUSH1 0x4 PUSH1 0x0 DUP5 PUSH20 0xFFFFFFFFFFFFFFFFFFFFFFFFFFFFFFFFFFFFFFFF AND PUSH20 0xFFFFFFFFFFFFFFFFFFFFFFFFFFFFFFFFFFFFFFFF AND DUP2 MSTORE PUSH1 0x20 ADD SWAP1 DUP2 MSTORE PUSH1 0x20 ADD PUSH1 0x0 KECCAK256 SLOAD PUSH2 0x206 SWAP2 SWAP1 PUSH2 0x8D0 JUMP JUMPDEST TIMESTAMP GT PUSH2 0x247 JUMPI PUSH1 0x40 MLOAD PUSH32 0x8C379A000000000000000000000000000000000000000000000000000000000 DUP2 MSTORE PUSH1 0x4 ADD PUSH2 0x23E SWAP1 PUSH2 0x950 JUMP JUMPDEST PUSH1 0x40 MLOAD DUP1 SWAP2 SUB SWAP1 REVERT JUMPDEST PUSH1 0x0 DUP3 PUSH20 0xFFFFFFFFFFFFFFFFFFFFFFFFFFFFFFFFFFFFFFFF AND PUSH4 0xDFE1681 PUSH1 0x40 MLOAD DUP2 PUSH4 0xFFFFFFFF AND PUSH1 0xE0 SHL DUP2 MSTORE PUSH1 0x4 ADD PUSH1 0x20 PUSH1 0x40 MLOAD DUP1 DUP4 SUB DUP2 DUP7 GAS STATICCALL ISZERO DUP1 ISZERO PUSH2 0x294 JUMPI RETURNDATASIZE PUSH1 0x0 DUP1 RETURNDATACOPY RETURNDATASIZE PUSH1 0x0 REVERT JUMPDEST POP POP POP POP PUSH1 0x40 MLOAD RETURNDATASIZE PUSH1 0x1F NOT PUSH1 0x1F DUP3 ADD AND DUP3 ADD DUP1 PUSH1 0x40 MSTORE POP DUP2 ADD SWAP1 PUSH2 0x2B8 SWAP2 SWAP1 PUSH2 0x985 JUMP JUMPDEST SWAP1 POP PUSH1 0x0 DUP4 PUSH20 0xFFFFFFFFFFFFFFFFFFFFFFFFFFFFFFFFFFFFFFFF AND PUSH4 0xD21220A7 PUSH1 0x40 MLOAD DUP2 PUSH4 0xFFFFFFFF AND PUSH1 0xE0 SHL DUP2 MSTORE PUSH1 0x4 ADD PUSH1 0x20 PUSH1 0x40 MLOAD DUP1 DUP4 SUB DUP2 DUP7 GAS STATICCALL ISZERO DUP1 ISZERO PUSH2 0x307 JUMPI RETURNDATASIZE PUSH1 0x0 DUP1 RETURNDATACOPY RETURNDATASIZE PUSH1 0x0 REVERT JUMPDEST POP POP POP POP PUSH1 0x40 MLOAD RETURNDATASIZE PUSH1 0x1F NOT PUSH1 0x1F DUP3 ADD AND DUP3 ADD DUP1 PUSH1 0x40 MSTORE POP DUP2 ADD SWAP1 PUSH2 0x32B SWAP2 SWAP1 PUSH2 0x985 JUMP JUMPDEST SWAP1 POP PUSH1 0x0 DUP3 PUSH20 0xFFFFFFFFFFFFFFFFFFFFFFFFFFFFFFFFFFFFFFFF AND PUSH4 0x70A08231 DUP7 PUSH1 0x40 MLOAD DUP3 PUSH4 0xFFFFFFFF AND PUSH1 0xE0 SHL DUP2 MSTORE PUSH1 0x4 ADD PUSH2 0x368 SWAP2 SWAP1 PUSH2 0x7DC JUMP JUMPDEST PUSH1 0x20 PUSH1 0x40 MLOAD DUP1 DUP4 SUB DUP2 DUP7 GAS STATICCALL ISZERO DUP1 ISZERO PUSH2 0x385 JUMPI RETURNDATASIZE PUSH1 0x0 DUP1 RETURNDATACOPY RETURNDATASIZE PUSH1 0x0 REVERT JUMPDEST POP POP POP POP PUSH1 0x40 MLOAD RETURNDATASIZE PUSH1 0x1F NOT PUSH1 0x1F DUP3 ADD AND DUP3 ADD DUP1 PUSH1 0x40 MSTORE POP DUP2 ADD SWAP1 PUSH2 0x3A9 SWAP2 SWAP1 PUSH2 0x9C7 JUMP JUMPDEST SWAP1 POP PUSH1 0x0 DUP3 PUSH20 0xFFFFFFFFFFFFFFFFFFFFFFFFFFFFFFFFFFFFFFFF AND PUSH4 0x70A08231 DUP8 PUSH1 0x40 MLOAD DUP3 PUSH4 0xFFFFFFFF AND PUSH1 0xE0 SHL DUP2 MSTORE PUSH1 0x4 ADD PUSH2 0x3E6 SWAP2 SWAP1 PUSH2 0x7DC JUMP JUMPDEST PUSH1 0x20 PUSH1 0x40 MLOAD DUP1 DUP4 SUB DUP2 DUP7 GAS STATICCALL ISZERO DUP1 ISZERO PUSH2 0x403 JUMPI RETURNDATASIZE PUSH1 0x0 DUP1 RETURNDATACOPY RETURNDATASIZE PUSH1 0x0 REVERT JUMPDEST POP POP POP POP PUSH1 0x40 MLOAD RETURNDATASIZE PUSH1 0x1F NOT PUSH1 0x1F DUP3 ADD AND DUP3 ADD DUP1 PUSH1 0x40 MSTORE POP DUP2 ADD SWAP1 PUSH2 0x427 SWAP2 SWAP1 PUSH2 0x9C7 JUMP JUMPDEST SWAP1 POP PUSH1 0x0 DUP2 PUSH2 0x2710 DUP5 PUSH2 0x43A SWAP2 SWAP1 PUSH2 0x9F4 JUMP JUMPDEST PUSH2 0x444 SWAP2 SWAP1 PUSH2 0xA65 JUMP JUMPDEST SWAP1 POP DUP6 DUP2 GT ISZERO PUSH2 0x4A5 JUMPI PUSH1 0x0 PUSH2 0x2710 DUP5 DUP9 DUP5 PUSH2 0x460 SWAP2 SWAP1 PUSH2 0xA96 JUMP JUMPDEST PUSH2 0x46A SWAP2 SWAP1 PUSH2 0x9F4 JUMP JUMPDEST PUSH2 0x474 SWAP2 SWAP1 PUSH2 0xA65 JUMP JUMPDEST SWAP1 POP PUSH1 0x0 DUP5 DUP5 DUP4 PUSH2 0x485 SWAP2 SWAP1 PUSH2 0x9F4 JUMP JUMPDEST PUSH2 0x48F SWAP2 SWAP1 PUSH2 0xA65 JUMP JUMPDEST SWAP1 POP PUSH2 0x49E DUP10 DUP4 DUP4 DUP11 DUP11 PUSH2 0x59C JUMP JUMPDEST POP POP PUSH2 0x501 JUMP JUMPDEST DUP6 DUP2 LT ISZERO PUSH2 0x500 JUMPI PUSH1 0x0 PUSH2 0x2710 DUP4 DUP4 DUP10 PUSH2 0x4BF SWAP2 SWAP1 PUSH2 0xA96 JUMP JUMPDEST PUSH2 0x4C9 SWAP2 SWAP1 PUSH2 0x9F4 JUMP JUMPDEST PUSH2 0x4D3 SWAP2 SWAP1 PUSH2 0xA65 JUMP JUMPDEST SWAP1 POP PUSH1 0x0 DUP4 DUP6 DUP4 PUSH2 0x4E4 SWAP2 SWAP1 PUSH2 0x9F4 JUMP JUMPDEST PUSH2 0x4EE SWAP2 SWAP1 PUSH2 0xA65 JUMP JUMPDEST SWAP1 POP PUSH2 0x4FD DUP10 DUP4 DUP4 DUP10 DUP12 PUSH2 0x59C JUMP JUMPDEST POP POP JUMPDEST JUMPDEST TIMESTAMP PUSH1 0x4 PUSH1 0x0 DUP10 PUSH20 0xFFFFFFFFFFFFFFFFFFFFFFFFFFFFFFFFFFFFFFFF AND PUSH20 0xFFFFFFFFFFFFFFFFFFFFFFFFFFFFFFFFFFFFFFFF AND DUP2 MSTORE PUSH1 0x20 ADD SWAP1 DUP2 MSTORE PUSH1 0x20 ADD PUSH1 0x0 KECCAK256 DUP2 SWAP1 SSTORE POP POP POP POP POP POP POP POP JUMP JUMPDEST PUSH1 0x2 SLOAD DUP2 JUMP JUMPDEST PUSH1 0x3 SLOAD DUP2 JUMP JUMPDEST PUSH1 0x1 SLOAD DUP2 JUMP JUMPDEST PUSH1 0x0 DUP1 SLOAD SWAP1 PUSH2 0x100 EXP SWAP1 DIV PUSH20 0xFFFFFFFFFFFFFFFFFFFFFFFFFFFFFFFFFFFFFFFF AND DUP2 JUMP JUMPDEST PUSH1 0x4 PUSH1 0x20 MSTORE DUP1 PUSH1 0x0 MSTORE PUSH1 0x40 PUSH1 0x0 KECCAK256 PUSH1 0x0 SWAP2 POP SWAP1 POP SLOAD DUP2 JUMP JUMPDEST PUSH1 0x0 DUP6 PUSH20 0xFFFFFFFFFFFFFFFFFFFFFFFFFFFFFFFFFFFFFFFF AND PUSH4 0xDFE1681 PUSH1 0x40 MLOAD DUP2 PUSH4 0xFFFFFFFF AND PUSH1 0xE0 SHL DUP2 MSTORE PUSH1 0x4 ADD PUSH1 0x20 PUSH1 0x40 MLOAD DUP1 DUP4 SUB DUP2 DUP7 GAS STATICCALL ISZERO DUP1 ISZERO PUSH2 0x5E9 JUMPI RETURNDATASIZE PUSH1 0x0 DUP1 RETURNDATACOPY RETURNDATASIZE PUSH1 0x0 REVERT JUMPDEST POP POP POP POP PUSH1 0x40 MLOAD RETURNDATASIZE PUSH1 0x1F NOT PUSH1 0x1F DUP3 ADD AND DUP3 ADD DUP1 PUSH1 0x40 MSTORE POP DUP2 ADD SWAP1 PUSH2 0x60D SWAP2 SWAP1 PUSH2 0x985 JUMP JUMPDEST SWAP1 POP PUSH1 0x0 DUP1 DUP3 PUSH20 0xFFFFFFFFFFFFFFFFFFFFFFFFFFFFFFFFFFFFFFFF AND DUP6 PUSH20 0xFFFFFFFFFFFFFFFFFFFFFFFFFFFFFFFFFFFFFFFF AND SUB PUSH2 0x64D JUMPI DUP7 SWAP2 POP PUSH2 0x651 JUMP JUMPDEST DUP7 SWAP1 POP JUMPDEST DUP8 PUSH20 0xFFFFFFFFFFFFFFFFFFFFFFFFFFFFFFFFFFFFFFFF AND PUSH4 0x6D9A640A DUP4 DUP4 ADDRESS PUSH1 0x40 MLOAD DUP5 PUSH4 0xFFFFFFFF AND PUSH1 0xE0 SHL DUP2 MSTORE PUSH1 0x4 ADD PUSH2 0x68E SWAP4 SWAP3 SWAP2 SWAP1 PUSH2 0xACA JUMP JUMPDEST PUSH1 0x0 PUSH1 0x40 MLOAD DUP1 DUP4 SUB DUP2 PUSH1 0x0 DUP8 DUP1 EXTCODESIZE ISZERO DUP1 ISZERO PUSH2 0x6A8 JUMPI PUSH1 0x0 DUP1 REVERT JUMPDEST POP GAS CALL ISZERO DUP1 ISZERO PUSH2 0x6BC JUMPI RETURNDATASIZE PUSH1 0x0 DUP1 RETURNDATACOPY RETURNDATASIZE PUSH1 0x0 REVERT JUMPDEST POP POP POP POP POP POP POP POP POP POP POP POP JUMP JUMPDEST PUSH1 0x0 DUP1 REVERT JUMPDEST PUSH1 0x0 PUSH20 0xFFFFFFFFFFFFFFFFFFFFFFFFFFFFFFFFFFFFFFFF DUP3 AND SWAP1 POP SWAP2 SWAP1 POP JUMP JUMPDEST PUSH1 0x0 PUSH2 0x6FA DUP3 PUSH2 0x6CF JUMP JUMPDEST SWAP1 POP SWAP2 SWAP1 POP JUMP JUMPDEST PUSH2 0x70A DUP2 PUSH2 0x6EF JUMP JUMPDEST DUP2 EQ PUSH2 0x715 JUMPI PUSH1 0x0 DUP1 REVERT JUMPDEST POP JUMP JUMPDEST PUSH1 0x0 DUP2 CALLDATALOAD SWAP1 POP PUSH2 0x727 DUP2 PUSH2 0x701 JUMP JUMPDEST SWAP3 SWAP2 POP POP JUMP JUMPDEST PUSH1 0x0 DUP2 SWAP1 POP SWAP2 SWAP1 POP JUMP JUMPDEST PUSH2 0x740 DUP2 PUSH2 0x72D JUMP JUMPDEST DUP2 EQ PUSH2 0x74B JUMPI PUSH1 0x0 DUP1 REVERT JUMPDEST POP JUMP JUMPDEST PUSH1 0x0 DUP2 CALLDATALOAD SWAP1 POP PUSH2 0x75D DUP2 PUSH2 0x737 JUMP JUMPDEST SWAP3 SWAP2 POP POP JUMP JUMPDEST PUSH1 0x0 DUP1 PUSH1 0x40 DUP4 DUP6 SUB SLT ISZERO PUSH2 0x77A JUMPI PUSH2 0x779 PUSH2 0x6CA JUMP JUMPDEST JUMPDEST PUSH1 0x0 PUSH2 0x788 DUP6 DUP3 DUP7 ADD PUSH2 0x718 JUMP JUMPDEST SWAP3 POP POP PUSH1 0x20 PUSH2 0x799 DUP6 DUP3 DUP7 ADD PUSH2 0x74E JUMP JUMPDEST SWAP2 POP POP SWAP3 POP SWAP3 SWAP1 POP JUMP JUMPDEST PUSH2 0x7AC DUP2 PUSH2 0x72D JUMP JUMPDEST DUP3 MSTORE POP POP JUMP JUMPDEST PUSH1 0x0 PUSH1 0x20 DUP3 ADD SWAP1 POP PUSH2 0x7C7 PUSH1 0x0 DUP4 ADD DUP5 PUSH2 0x7A3 JUMP JUMPDEST SWAP3 SWAP2 POP POP JUMP JUMPDEST PUSH2 0x7D6 DUP2 PUSH2 0x6EF JUMP JUMPDEST DUP3 MSTORE POP POP JUMP JUMPDEST PUSH1 0x0 PUSH1 0x20 DUP3 ADD SWAP1 POP PUSH2 0x7F1 PUSH1 0x0 DUP4 ADD DUP5 PUSH2 0x7CD JUMP JUMPDEST SWAP3 SWAP2 POP POP JUMP JUMPDEST PUSH1 0x0 PUSH1 0x20 DUP3 DUP5 SUB SLT ISZERO PUSH2 0x80D JUMPI PUSH2 0x80C PUSH2 0x6CA JUMP JUMPDEST JUMPDEST PUSH1 0x0 PUSH2 0x81B DUP5 DUP3 DUP6 ADD PUSH2 0x718 JUMP JUMPDEST SWAP2 POP POP SWAP3 SWAP2 POP POP JUMP JUMPDEST PUSH1 0x0 DUP3 DUP3 MSTORE PUSH1 0x20 DUP3 ADD SWAP1 POP SWAP3 SWAP2 POP POP JUMP JUMPDEST PUSH32 0x4E6F74206B656570657200000000000000000000000000000000000000000000 PUSH1 0x0 DUP3 ADD MSTORE POP JUMP JUMPDEST PUSH1 0x0 PUSH2 0x86B PUSH1 0xA DUP4 PUSH2 0x824 JUMP JUMPDEST SWAP2 POP PUSH2 0x876 DUP3 PUSH2 0x835 JUMP JUMPDEST PUSH1 0x20 DUP3 ADD SWAP1 POP SWAP2 SWAP1 POP JUMP JUMPDEST PUSH1 0x0 PUSH1 0x20 DUP3 ADD SWAP1 POP DUP2 DUP2 SUB PUSH1 0x0 DUP4 ADD MSTORE PUSH2 0x89A DUP2 PUSH2 0x85E JUMP JUMPDEST SWAP1 POP SWAP2 SWAP1 POP JUMP JUMPDEST PUSH32 0x4E487B7100000000000000000000000000000000000000000000000000000000 PUSH1 0x0 MSTORE PUSH1 0x11 PUSH1 0x4 MSTORE PUSH1 0x24 PUSH1 0x0 REVERT JUMPDEST PUSH1 0x0 PUSH2 0x8DB DUP3 PUSH2 0x72D JUMP JUMPDEST SWAP2 POP PUSH2 0x8E6 DUP4 PUSH2 0x72D JUMP JUMPDEST SWAP3 POP DUP3 DUP3 ADD SWAP1 POP DUP1 DUP3 GT ISZERO PUSH2 0x8FE JUMPI PUSH2 0x8FD PUSH2 0x8A1 JUMP JUMPDEST JUMPDEST SWAP3 SWAP2 POP POP JUMP JUMPDEST PUSH32 0x436F6F6C646F776E000000000000000000000000000000000000000000000000 PUSH1 0x0 DUP3 ADD MSTORE POP JUMP JUMPDEST PUSH1 0x0 PUSH2 0x93A PUSH1 0x8 DUP4 PUSH2 0x824 JUMP JUMPDEST SWAP2 POP PUSH2 0x945 DUP3 PUSH2 0x904 JUMP JUMPDEST PUSH1 0x20 DUP3 ADD SWAP1 POP SWAP2 SWAP1 POP JUMP JUMPDEST PUSH1 0x0 PUSH1 0x20 DUP3 ADD SWAP1 POP DUP2 DUP2 SUB PUSH1 0x0 DUP4 ADD MSTORE PUSH2 0x969 DUP2 PUSH2 0x92D JUMP JUMPDEST SWAP1 POP SWAP2 SWAP1 POP JUMP JUMPDEST PUSH1 0x0 DUP2 MLOAD SWAP1 POP PUSH2 0x97F DUP2 PUSH2 0x701 JUMP JUMPDEST SWAP3 SWAP2 POP POP JUMP JUMPDEST PUSH1 0x0 PUSH1 0x20 DUP3 DUP5 SUB SLT ISZERO PUSH2 0x99B JUMPI PUSH2 0x99A PUSH2 0x6CA JUMP JUMPDEST JUMPDEST PUSH1 0x0 PUSH2 0x9A9 DUP5 DUP3 DUP6 ADD PUSH2 0x970 JUMP JUMPDEST SWAP2 POP POP SWAP3 SWAP2 POP POP JUMP JUMPDEST PUSH1 0x0 DUP2 MLOAD SWAP1 POP PUSH2 0x9C1 DUP2 PUSH2 0x737 JUMP JUMPDEST SWAP3 SWAP2 POP POP JUMP JUMPDEST PUSH1 0x0 PUSH1 0x20 DUP3 DUP5 SUB SLT ISZERO PUSH2 0x9DD JUMPI PUSH2 0x9DC PUSH2 0x6CA JUMP JUMPDEST JUMPDEST PUSH1 0x0 PUSH2 0x9EB DUP5 DUP3 DUP6 ADD PUSH2 0x9B2 JUMP JUMPDEST SWAP2 POP POP SWAP3 SWAP2 POP POP JUMP JUMPDEST PUSH1 0x0 PUSH2 0x9FF DUP3 PUSH2 0x72D JUMP JUMPDEST SWAP2 POP PUSH2 0xA0A DUP4 PUSH2 0x72D JUMP JUMPDEST SWAP3 POP DUP3 DUP3 MUL PUSH2 0xA18 DUP2 PUSH2 0x72D JUMP JUMPDEST SWAP2 POP DUP3 DUP3 DIV DUP5 EQ DUP4 ISZERO OR PUSH2 0xA2F JUMPI PUSH2 0xA2E PUSH2 0x8A1 JUMP JUMPDEST JUMPDEST POP SWAP3 SWAP2 POP POP JUMP JUMPDEST PUSH32 0x4E487B7100000000000000000000000000000000000000000000000000000000 PUSH1 0x0 MSTORE PUSH1 0x12 PUSH1 0x4 MSTORE PUSH1 0x24 PUSH1 0x0 REVERT JUMPDEST PUSH1 0x0 PUSH2 0xA70 DUP3 PUSH2 0x72D JUMP JUMPDEST SWAP2 POP PUSH2 0xA7B DUP4 PUSH2 0x72D JUMP JUMPDEST SWAP3 POP DUP3 PUSH2 0xA8B JUMPI PUSH2 0xA8A PUSH2 0xA36 JUMP JUMPDEST JUMPDEST DUP3 DUP3 DIV SWAP1 POP SWAP3 SWAP2 POP POP JUMP JUMPDEST PUSH1 0x0 PUSH2 0xAA1 DUP3 PUSH2 0x72D JUMP JUMPDEST SWAP2 POP PUSH2 0xAAC DUP4 PUSH2 0x72D JUMP JUMPDEST SWAP3 POP DUP3 DUP3 SUB SWAP1 POP DUP2 DUP2 GT ISZERO PUSH2 0xAC4 JUMPI PUSH2 0xAC3 PUSH2 0x8A1 JUMP JUMPDEST JUMPDEST SWAP3 SWAP2 POP POP JUMP JUMPDEST PUSH1 0x0 PUSH1 0x60 DUP3 ADD SWAP1 POP PUSH2 0xADF PUSH1 0x0 DUP4 ADD DUP7 PUSH2 0x7A3 JUMP JUMPDEST PUSH2 0xAEC PUSH1 0x20 DUP4 ADD DUP6 PUSH2 0x7A3 JUMP JUMPDEST PUSH2 0xAF9 PUSH1 0x40 DUP4 ADD DUP5 PUSH2 0x7CD JUMP JUMPDEST SWAP5 SWAP4 POP POP POP POP JUMP INVALID LOG2 PUSH5 0x6970667358 0x22 SLT KECCAK256 PUSH14 0xB0124CC436BB92BD3243C7CE8B8A PUSH28 0xA74538D12FCA84CFF588C3143BE122AB64736F6C634300081C003300 "},"methodIdentifiers":{"cooldown()":"787a08a6","keeper()":"aced1661","lastRebalance(address)":"fdd0fd2d","maxGasPrice()":"3de39c11","maxSlippage()":"8c04166f","rebalance(address,uint256)":"3da9b9d0"}}}}}