{
  "_format": "hh-sol-artifact-1",
  "contractName": "Provider",
  "sourceName": "contracts/Provider.sol",
  "abi": [
    {
      "inputs": [
        {
          "internalType": "address",
          "name": "tokenA",
          "type": "address"
        },
        {
          "internalType": "address",
          "name": "tokenB",
          "type": "address"
        },
        {
          "internalType": "uint256",
          "name": "amountA",
          "type": "uint256"
        },
        {
          "internalType": "uint256",
          "name": "amountB",
          "type": "uint256"
        }
      ],
      "name": "addLiquidity",
      "outputs": [],
      "stateMutability": "nonpayable",
      "type": "function"
    },
    {
      "inputs": [
        {
          "internalType": "address",
          "name": "tokenA",
          "type": "address"
        },
        {
          "internalType": "address",
          "name": "tokenB",
          "type": "address"
        }
      ],
      "name": "createLiquidityPool",
      "outputs": [],
      "stateMutability": "nonpayable",
      "type": "function"
    },
    {
      "inputs": [
        {
          "internalType": "address",
          "name": "",
          "type": "address"
        },
        {
          "internalType": "address",
          "name": "",
          "type": "address"
        }
      ],
      "name": "liquidityPools",
      "outputs": [
        {
          "internalType": "uint256",
          "name": "",
          "type": "uint256"
        }
      ],
      "stateMutability": "view",
      "type": "function"
    }
  ],
  "bytecode": "0x6080604052348015600f57600080fd5b50610a288061001f6000396000f3fe608060405234801561001057600080fd5b50600436106100415760003560e01c80632384d3d014610046578063565841d114610062578063cf6c62ea14610092575b600080fd5b610060600480360381019061005b91906106a1565b6100ae565b005b61007c600480360381019061007791906106a1565b6102cb565b60405161008991906106fa565b60405180910390f35b6100ac60048036038101906100a79190610741565b6102f0565b005b600073ffffffffffffffffffffffffffffffffffffffff168273ffffffffffffffffffffffffffffffffffffffff16141580156101185750600073ffffffffffffffffffffffffffffffffffffffff168173ffffffffffffffffffffffffffffffffffffffff1614155b610157576040517f08c379a000000000000000000000000000000000000000000000000000000000815260040161014e90610805565b60405180910390fd5b8073ffffffffffffffffffffffffffffffffffffffff168273ffffffffffffffffffffffffffffffffffffffff16036101c5576040517f08c379a00000000000000000000000000000000000000000000000000000000081526004016101bc90610897565b60405180910390fd5b60008060008473ffffffffffffffffffffffffffffffffffffffff1673ffffffffffffffffffffffffffffffffffffffff16815260200190815260200160002060008373ffffffffffffffffffffffffffffffffffffffff1673ffffffffffffffffffffffffffffffffffffffff1681526020019081526020016000208190555060008060008373ffffffffffffffffffffffffffffffffffffffff1673ffffffffffffffffffffffffffffffffffffffff16815260200190815260200160002060008473ffffffffffffffffffffffffffffffffffffffff1673ffffffffffffffffffffffffffffffffffffffff168152602001908152602001600020819055505050565b6000602052816000526040600020602052806000526040600020600091509150505481565b600073ffffffffffffffffffffffffffffffffffffffff168473ffffffffffffffffffffffffffffffffffffffff161415801561035a5750600073ffffffffffffffffffffffffffffffffffffffff168373ffffffffffffffffffffffffffffffffffffffff1614155b610399576040517f08c379a000000000000000000000000000000000000000000000000000000000815260040161039090610805565b60405180910390fd5b8273ffffffffffffffffffffffffffffffffffffffff168473ffffffffffffffffffffffffffffffffffffffff1603610407576040517f08c379a00000000000000000000000000000000000000000000000000000000081526004016103fe90610897565b60405180910390fd5b60008060008673ffffffffffffffffffffffffffffffffffffffff1673ffffffffffffffffffffffffffffffffffffffff16815260200190815260200160002060008573ffffffffffffffffffffffffffffffffffffffff1673ffffffffffffffffffffffffffffffffffffffff16815260200190815260200160002054036104c5576040517f08c379a00000000000000000000000000000000000000000000000000000000081526004016104bc90610903565b60405180910390fd5b6000821180156104d55750600081115b610514576040517f08c379a000000000000000000000000000000000000000000000000000000000815260040161050b9061096f565b60405180910390fd5b816000808673ffffffffffffffffffffffffffffffffffffffff1673ffffffffffffffffffffffffffffffffffffffff16815260200190815260200160002060008573ffffffffffffffffffffffffffffffffffffffff1673ffffffffffffffffffffffffffffffffffffffff168152602001908152602001600020600082825461059f91906109be565b92505081905550806000808573ffffffffffffffffffffffffffffffffffffffff1673ffffffffffffffffffffffffffffffffffffffff16815260200190815260200160002060008673ffffffffffffffffffffffffffffffffffffffff1673ffffffffffffffffffffffffffffffffffffffff168152602001908152602001600020600082825461063191906109be565b9250508190555050505050565b600080fd5b600073ffffffffffffffffffffffffffffffffffffffff82169050919050565b600061066e82610643565b9050919050565b61067e81610663565b811461068957600080fd5b50565b60008135905061069b81610675565b92915050565b600080604083850312156106b8576106b761063e565b5b60006106c68582860161068c565b92505060206106d78582860161068c565b9150509250929050565b6000819050919050565b6106f4816106e1565b82525050565b600060208201905061070f60008301846106eb565b92915050565b61071e816106e1565b811461072957600080fd5b50565b60008135905061073b81610715565b92915050565b6000806000806080858703121561075b5761075a61063e565b5b60006107698782880161068c565b945050602061077a8782880161068c565b935050604061078b8782880161072c565b925050606061079c8782880161072c565b91505092959194509250565b600082825260208201905092915050565b7f746f6b656e732063616e6e6f74206265207a65726f2061646472657373000000600082015250565b60006107ef601d836107a8565b91506107fa826107b9565b602082019050919050565b6000602082019050818103600083015261081e816107e2565b9050919050565b7f746f6b656e732063616e6e6f74206265207468652073616d652061646472657360008201527f7300000000000000000000000000000000000000000000000000000000000000602082015250565b60006108816021836107a8565b915061088c82610825565b604082019050919050565b600060208201905081810360008301526108b081610874565b9050919050565b7f6c697175696469747920706f6f6c20646f6573206e6f74206578697374000000600082015250565b60006108ed601d836107a8565b91506108f8826108b7565b602082019050919050565b6000602082019050818103600083015261091c816108e0565b9050919050565b7f616d6f756e74732063616e6e6f74206265207a65726f00000000000000000000600082015250565b60006109596016836107a8565b915061096482610923565b602082019050919050565b600060208201905081810360008301526109888161094c565b9050919050565b7f4e487b7100000000000000000000000000000000000000000000000000000000600052601160045260246000fd5b60006109c9826106e1565b91506109d4836106e1565b92508282019050808211156109ec576109eb61098f565b5b9291505056fea264697066735822122095bf3088a44a7467b666f81e1bb67a38112282dc09c4998b037c3cbed48b295f64736f6c634300081c0033",
  "linkReferences": {},
  "deployedLinkReferences": {}
}